{
	"ErrorHandling.sol": {
		"ErrorHandling": {
			"abi": [
				{
					"inputs": [
						{
							"internalType": "int256",
							"name": "amount",
							"type": "int256"
						}
					],
					"name": "depositBalance",
					"outputs": [
						{
							"internalType": "int256",
							"name": "",
							"type": "int256"
						}
					],
					"stateMutability": "nonpayable",
					"type": "function"
				},
				{
					"inputs": [],
					"name": "viewBalance",
					"outputs": [
						{
							"internalType": "int256",
							"name": "",
							"type": "int256"
						}
					],
					"stateMutability": "view",
					"type": "function"
				},
				{
					"inputs": [
						{
							"internalType": "int256",
							"name": "amount",
							"type": "int256"
						}
					],
					"name": "withdraw",
					"outputs": [
						{
							"internalType": "int256",
							"name": "",
							"type": "int256"
						}
					],
					"stateMutability": "nonpayable",
					"type": "function"
				}
			],
			"devdoc": {
				"kind": "dev",
				"methods": {},
				"version": 1
			},
			"evm": {
				"assembly": "    /* \"ErrorHandling.sol\":61:681  contract ErrorHandling {... */\n  mstore(0x40, 0x80)\n    /* \"ErrorHandling.sol\":109:114  10000 */\n  0x2710\n    /* \"ErrorHandling.sol\":91:114  int initBalance = 10000 */\n  0x00\n  sstore\n    /* \"ErrorHandling.sol\":61:681  contract ErrorHandling {... */\n  callvalue\n  dup1\n  iszero\n  tag_1\n  jumpi\n  0x00\n  dup1\n  revert\ntag_1:\n  pop\n  dataSize(sub_0)\n  dup1\n  dataOffset(sub_0)\n  0x00\n  codecopy\n  0x00\n  return\nstop\n\nsub_0: assembly {\n        /* \"ErrorHandling.sol\":61:681  contract ErrorHandling {... */\n      mstore(0x40, 0x80)\n      callvalue\n      dup1\n      iszero\n      tag_1\n      jumpi\n      0x00\n      dup1\n      revert\n    tag_1:\n      pop\n      jumpi(tag_2, lt(calldatasize, 0x04))\n      shr(0xe0, calldataload(0x00))\n      dup1\n      0x3ff1e05b\n      eq\n      tag_3\n      jumpi\n      dup1\n      0x7e62eab8\n      eq\n      tag_4\n      jumpi\n      dup1\n      0xe51ed0a0\n      eq\n      tag_5\n      jumpi\n    tag_2:\n      0x00\n      dup1\n      revert\n        /* \"ErrorHandling.sol\":592:676  function viewBalance() public view returns(int){... */\n    tag_3:\n      tag_6\n      tag_7\n      jump\t// in\n    tag_6:\n      mload(0x40)\n      tag_8\n      swap2\n      swap1\n      tag_9\n      jump\t// in\n    tag_8:\n      mload(0x40)\n      dup1\n      swap2\n      sub\n      swap1\n      return\n        /* \"ErrorHandling.sol\":123:386  function withdraw(int amount) public returns (int) {... */\n    tag_4:\n      tag_10\n      0x04\n      dup1\n      calldatasize\n      sub\n      dup2\n      add\n      swap1\n      tag_11\n      swap2\n      swap1\n      tag_12\n      jump\t// in\n    tag_11:\n      tag_13\n      jump\t// in\n    tag_10:\n      mload(0x40)\n      tag_14\n      swap2\n      swap1\n      tag_9\n      jump\t// in\n    tag_14:\n      mload(0x40)\n      dup1\n      swap2\n      sub\n      swap1\n      return\n        /* \"ErrorHandling.sol\":394:584  function depositBalance(int amount) public returns (int){... */\n    tag_5:\n      tag_15\n      0x04\n      dup1\n      calldatasize\n      sub\n      dup2\n      add\n      swap1\n      tag_16\n      swap2\n      swap1\n      tag_12\n      jump\t// in\n    tag_16:\n      tag_17\n      jump\t// in\n    tag_15:\n      mload(0x40)\n      tag_18\n      swap2\n      swap1\n      tag_9\n      jump\t// in\n    tag_18:\n      mload(0x40)\n      dup1\n      swap2\n      sub\n      swap1\n      return\n        /* \"ErrorHandling.sol\":592:676  function viewBalance() public view returns(int){... */\n    tag_7:\n        /* \"ErrorHandling.sol\":635:638  int */\n      0x00\n        /* \"ErrorHandling.sol\":657:668  initBalance */\n      dup1\n      sload\n        /* \"ErrorHandling.sol\":650:668  return initBalance */\n      swap1\n      pop\n        /* \"ErrorHandling.sol\":592:676  function viewBalance() public view returns(int){... */\n      swap1\n      jump\t// out\n        /* \"ErrorHandling.sol\":123:386  function withdraw(int amount) public returns (int) {... */\n    tag_13:\n        /* \"ErrorHandling.sol\":169:172  int */\n      0x00\n        /* \"ErrorHandling.sol\":201:202  0 */\n      dup1\n        /* \"ErrorHandling.sol\":192:198  amount */\n      dup3\n        /* \"ErrorHandling.sol\":192:202  amount > 0 */\n      sgt\n        /* \"ErrorHandling.sol\":185:203  assert(amount > 0) */\n      tag_21\n      jumpi\n      tag_22\n      tag_23\n      jump\t// in\n    tag_22:\n    tag_21:\n        /* \"ErrorHandling.sol\":228:239  initBalance */\n      sload(0x00)\n        /* \"ErrorHandling.sol\":219:225  amount */\n      dup3\n        /* \"ErrorHandling.sol\":219:239  amount > initBalance */\n      sgt\n        /* \"ErrorHandling.sol\":216:318  if(amount > initBalance){... */\n      iszero\n      tag_24\n      jumpi\n        /* \"ErrorHandling.sol\":255:306  revert(\"Amount must be less than initial balance!\") */\n      mload(0x40)\n      0x08c379a000000000000000000000000000000000000000000000000000000000\n      dup2\n      mstore\n      0x04\n      add\n      tag_25\n      swap1\n      tag_26\n      jump\t// in\n    tag_25:\n      mload(0x40)\n      dup1\n      swap2\n      sub\n      swap1\n      revert\n        /* \"ErrorHandling.sol\":216:318  if(amount > initBalance){... */\n    tag_24:\n        /* \"ErrorHandling.sol\":343:349  amount */\n      dup2\n        /* \"ErrorHandling.sol\":328:339  initBalance */\n      0x00\n      dup1\n        /* \"ErrorHandling.sol\":328:349  initBalance -= amount */\n      dup3\n      dup3\n      sload\n      tag_27\n      swap2\n      swap1\n      tag_28\n      jump\t// in\n    tag_27:\n      swap3\n      pop\n      pop\n      dup2\n      swap1\n      sstore\n      pop\n        /* \"ErrorHandling.sol\":367:378  initBalance */\n      sload(0x00)\n        /* \"ErrorHandling.sol\":360:378  return initBalance */\n      swap1\n      pop\n        /* \"ErrorHandling.sol\":123:386  function withdraw(int amount) public returns (int) {... */\n      swap2\n      swap1\n      pop\n      jump\t// out\n        /* \"ErrorHandling.sol\":394:584  function depositBalance(int amount) public returns (int){... */\n    tag_17:\n        /* \"ErrorHandling.sol\":446:449  int */\n      0x00\n        /* \"ErrorHandling.sol\":479:480  0 */\n      dup1\n        /* \"ErrorHandling.sol\":469:475  amount */\n      dup3\n        /* \"ErrorHandling.sol\":469:480  amount >= 0 */\n      slt\n      iszero\n        /* \"ErrorHandling.sol\":461:515  require(amount >= 0, \"Value should be greater than 0\") */\n      tag_30\n      jumpi\n      mload(0x40)\n      0x08c379a000000000000000000000000000000000000000000000000000000000\n      dup2\n      mstore\n      0x04\n      add\n      tag_31\n      swap1\n      tag_32\n      jump\t// in\n    tag_31:\n      mload(0x40)\n      dup1\n      swap2\n      sub\n      swap1\n      revert\n    tag_30:\n        /* \"ErrorHandling.sol\":541:547  amount */\n      dup2\n        /* \"ErrorHandling.sol\":526:537  initBalance */\n      0x00\n      dup1\n        /* \"ErrorHandling.sol\":526:547  initBalance += amount */\n      dup3\n      dup3\n      sload\n      tag_33\n      swap2\n      swap1\n      tag_34\n      jump\t// in\n    tag_33:\n      swap3\n      pop\n      pop\n      dup2\n      swap1\n      sstore\n      pop\n        /* \"ErrorHandling.sol\":565:576  initBalance */\n      sload(0x00)\n        /* \"ErrorHandling.sol\":558:576  return initBalance */\n      swap1\n      pop\n        /* \"ErrorHandling.sol\":394:584  function depositBalance(int amount) public returns (int){... */\n      swap2\n      swap1\n      pop\n      jump\t// out\n        /* \"#utility.yul\":7:83   */\n    tag_35:\n        /* \"#utility.yul\":43:50   */\n      0x00\n        /* \"#utility.yul\":72:77   */\n      dup2\n        /* \"#utility.yul\":61:77   */\n      swap1\n      pop\n        /* \"#utility.yul\":7:83   */\n      swap2\n      swap1\n      pop\n      jump\t// out\n        /* \"#utility.yul\":89:204   */\n    tag_36:\n        /* \"#utility.yul\":174:197   */\n      tag_51\n        /* \"#utility.yul\":191:196   */\n      dup2\n        /* \"#utility.yul\":174:197   */\n      tag_35\n      jump\t// in\n    tag_51:\n        /* \"#utility.yul\":169:172   */\n      dup3\n        /* \"#utility.yul\":162:198   */\n      mstore\n        /* \"#utility.yul\":89:204   */\n      pop\n      pop\n      jump\t// out\n        /* \"#utility.yul\":210:428   */\n    tag_9:\n        /* \"#utility.yul\":301:305   */\n      0x00\n        /* \"#utility.yul\":339:341   */\n      0x20\n        /* \"#utility.yul\":328:337   */\n      dup3\n        /* \"#utility.yul\":324:342   */\n      add\n        /* \"#utility.yul\":316:342   */\n      swap1\n      pop\n        /* \"#utility.yul\":352:421   */\n      tag_53\n        /* \"#utility.yul\":418:419   */\n      0x00\n        /* \"#utility.yul\":407:416   */\n      dup4\n        /* \"#utility.yul\":403:420   */\n      add\n        /* \"#utility.yul\":394:400   */\n      dup5\n        /* \"#utility.yul\":352:421   */\n      tag_36\n      jump\t// in\n    tag_53:\n        /* \"#utility.yul\":210:428   */\n      swap3\n      swap2\n      pop\n      pop\n      jump\t// out\n        /* \"#utility.yul\":515:632   */\n    tag_38:\n        /* \"#utility.yul\":624:625   */\n      0x00\n        /* \"#utility.yul\":621:622   */\n      dup1\n        /* \"#utility.yul\":614:626   */\n      revert\n        /* \"#utility.yul\":761:881   */\n    tag_40:\n        /* \"#utility.yul\":833:856   */\n      tag_58\n        /* \"#utility.yul\":850:855   */\n      dup2\n        /* \"#utility.yul\":833:856   */\n      tag_35\n      jump\t// in\n    tag_58:\n        /* \"#utility.yul\":826:831   */\n      dup2\n        /* \"#utility.yul\":823:857   */\n      eq\n        /* \"#utility.yul\":813:875   */\n      tag_59\n      jumpi\n        /* \"#utility.yul\":871:872   */\n      0x00\n        /* \"#utility.yul\":868:869   */\n      dup1\n        /* \"#utility.yul\":861:873   */\n      revert\n        /* \"#utility.yul\":813:875   */\n    tag_59:\n        /* \"#utility.yul\":761:881   */\n      pop\n      jump\t// out\n        /* \"#utility.yul\":887:1024   */\n    tag_41:\n        /* \"#utility.yul\":932:937   */\n      0x00\n        /* \"#utility.yul\":970:976   */\n      dup2\n        /* \"#utility.yul\":957:977   */\n      calldataload\n        /* \"#utility.yul\":948:977   */\n      swap1\n      pop\n        /* \"#utility.yul\":986:1018   */\n      tag_61\n        /* \"#utility.yul\":1012:1017   */\n      dup2\n        /* \"#utility.yul\":986:1018   */\n      tag_40\n      jump\t// in\n    tag_61:\n        /* \"#utility.yul\":887:1024   */\n      swap3\n      swap2\n      pop\n      pop\n      jump\t// out\n        /* \"#utility.yul\":1030:1357   */\n    tag_12:\n        /* \"#utility.yul\":1088:1094   */\n      0x00\n        /* \"#utility.yul\":1137:1139   */\n      0x20\n        /* \"#utility.yul\":1125:1134   */\n      dup3\n        /* \"#utility.yul\":1116:1123   */\n      dup5\n        /* \"#utility.yul\":1112:1135   */\n      sub\n        /* \"#utility.yul\":1108:1140   */\n      slt\n        /* \"#utility.yul\":1105:1224   */\n      iszero\n      tag_63\n      jumpi\n        /* \"#utility.yul\":1143:1222   */\n      tag_64\n      tag_38\n      jump\t// in\n    tag_64:\n        /* \"#utility.yul\":1105:1224   */\n    tag_63:\n        /* \"#utility.yul\":1263:1264   */\n      0x00\n        /* \"#utility.yul\":1288:1340   */\n      tag_65\n        /* \"#utility.yul\":1332:1339   */\n      dup5\n        /* \"#utility.yul\":1323:1329   */\n      dup3\n        /* \"#utility.yul\":1312:1321   */\n      dup6\n        /* \"#utility.yul\":1308:1330   */\n      add\n        /* \"#utility.yul\":1288:1340   */\n      tag_41\n      jump\t// in\n    tag_65:\n        /* \"#utility.yul\":1278:1340   */\n      swap2\n      pop\n        /* \"#utility.yul\":1234:1350   */\n      pop\n        /* \"#utility.yul\":1030:1357   */\n      swap3\n      swap2\n      pop\n      pop\n      jump\t// out\n        /* \"#utility.yul\":1363:1543   */\n    tag_23:\n        /* \"#utility.yul\":1411:1488   */\n      0x4e487b7100000000000000000000000000000000000000000000000000000000\n        /* \"#utility.yul\":1408:1409   */\n      0x00\n        /* \"#utility.yul\":1401:1489   */\n      mstore\n        /* \"#utility.yul\":1508:1512   */\n      0x01\n        /* \"#utility.yul\":1505:1506   */\n      0x04\n        /* \"#utility.yul\":1498:1513   */\n      mstore\n        /* \"#utility.yul\":1532:1536   */\n      0x24\n        /* \"#utility.yul\":1529:1530   */\n      0x00\n        /* \"#utility.yul\":1522:1537   */\n      revert\n        /* \"#utility.yul\":1549:1718   */\n    tag_42:\n        /* \"#utility.yul\":1633:1644   */\n      0x00\n        /* \"#utility.yul\":1667:1673   */\n      dup3\n        /* \"#utility.yul\":1662:1665   */\n      dup3\n        /* \"#utility.yul\":1655:1674   */\n      mstore\n        /* \"#utility.yul\":1707:1711   */\n      0x20\n        /* \"#utility.yul\":1702:1705   */\n      dup3\n        /* \"#utility.yul\":1698:1712   */\n      add\n        /* \"#utility.yul\":1683:1712   */\n      swap1\n      pop\n        /* \"#utility.yul\":1549:1718   */\n      swap3\n      swap2\n      pop\n      pop\n      jump\t// out\n        /* \"#utility.yul\":1724:1952   */\n    tag_43:\n        /* \"#utility.yul\":1864:1898   */\n      0x416d6f756e74206d757374206265206c657373207468616e20696e697469616c\n        /* \"#utility.yul\":1860:1861   */\n      0x00\n        /* \"#utility.yul\":1852:1858   */\n      dup3\n        /* \"#utility.yul\":1848:1862   */\n      add\n        /* \"#utility.yul\":1841:1899   */\n      mstore\n        /* \"#utility.yul\":1933:1944   */\n      0x2062616c616e6365210000000000000000000000000000000000000000000000\n        /* \"#utility.yul\":1928:1930   */\n      0x20\n        /* \"#utility.yul\":1920:1926   */\n      dup3\n        /* \"#utility.yul\":1916:1931   */\n      add\n        /* \"#utility.yul\":1909:1945   */\n      mstore\n        /* \"#utility.yul\":1724:1952   */\n      pop\n      jump\t// out\n        /* \"#utility.yul\":1958:2324   */\n    tag_44:\n        /* \"#utility.yul\":2100:2103   */\n      0x00\n        /* \"#utility.yul\":2121:2188   */\n      tag_70\n        /* \"#utility.yul\":2185:2187   */\n      0x29\n        /* \"#utility.yul\":2180:2183   */\n      dup4\n        /* \"#utility.yul\":2121:2188   */\n      tag_42\n      jump\t// in\n    tag_70:\n        /* \"#utility.yul\":2114:2188   */\n      swap2\n      pop\n        /* \"#utility.yul\":2197:2290   */\n      tag_71\n        /* \"#utility.yul\":2286:2289   */\n      dup3\n        /* \"#utility.yul\":2197:2290   */\n      tag_43\n      jump\t// in\n    tag_71:\n        /* \"#utility.yul\":2315:2317   */\n      0x40\n        /* \"#utility.yul\":2310:2313   */\n      dup3\n        /* \"#utility.yul\":2306:2318   */\n      add\n        /* \"#utility.yul\":2299:2318   */\n      swap1\n      pop\n        /* \"#utility.yul\":1958:2324   */\n      swap2\n      swap1\n      pop\n      jump\t// out\n        /* \"#utility.yul\":2330:2749   */\n    tag_26:\n        /* \"#utility.yul\":2496:2500   */\n      0x00\n        /* \"#utility.yul\":2534:2536   */\n      0x20\n        /* \"#utility.yul\":2523:2532   */\n      dup3\n        /* \"#utility.yul\":2519:2537   */\n      add\n        /* \"#utility.yul\":2511:2537   */\n      swap1\n      pop\n        /* \"#utility.yul\":2583:2592   */\n      dup2\n        /* \"#utility.yul\":2577:2581   */\n      dup2\n        /* \"#utility.yul\":2573:2593   */\n      sub\n        /* \"#utility.yul\":2569:2570   */\n      0x00\n        /* \"#utility.yul\":2558:2567   */\n      dup4\n        /* \"#utility.yul\":2554:2571   */\n      add\n        /* \"#utility.yul\":2547:2594   */\n      mstore\n        /* \"#utility.yul\":2611:2742   */\n      tag_73\n        /* \"#utility.yul\":2737:2741   */\n      dup2\n        /* \"#utility.yul\":2611:2742   */\n      tag_44\n      jump\t// in\n    tag_73:\n        /* \"#utility.yul\":2603:2742   */\n      swap1\n      pop\n        /* \"#utility.yul\":2330:2749   */\n      swap2\n      swap1\n      pop\n      jump\t// out\n        /* \"#utility.yul\":2755:2935   */\n    tag_45:\n        /* \"#utility.yul\":2803:2880   */\n      0x4e487b7100000000000000000000000000000000000000000000000000000000\n        /* \"#utility.yul\":2800:2801   */\n      0x00\n        /* \"#utility.yul\":2793:2881   */\n      mstore\n        /* \"#utility.yul\":2900:2904   */\n      0x11\n        /* \"#utility.yul\":2897:2898   */\n      0x04\n        /* \"#utility.yul\":2890:2905   */\n      mstore\n        /* \"#utility.yul\":2924:2928   */\n      0x24\n        /* \"#utility.yul\":2921:2922   */\n      0x00\n        /* \"#utility.yul\":2914:2929   */\n      revert\n        /* \"#utility.yul\":2941:3313   */\n    tag_28:\n        /* \"#utility.yul\":2980:2984   */\n      0x00\n        /* \"#utility.yul\":3000:3019   */\n      tag_76\n        /* \"#utility.yul\":3017:3018   */\n      dup3\n        /* \"#utility.yul\":3000:3019   */\n      tag_35\n      jump\t// in\n    tag_76:\n        /* \"#utility.yul\":2995:3019   */\n      swap2\n      pop\n        /* \"#utility.yul\":3033:3052   */\n      tag_77\n        /* \"#utility.yul\":3050:3051   */\n      dup4\n        /* \"#utility.yul\":3033:3052   */\n      tag_35\n      jump\t// in\n    tag_77:\n        /* \"#utility.yul\":3028:3052   */\n      swap3\n      pop\n        /* \"#utility.yul\":3076:3077   */\n      dup3\n        /* \"#utility.yul\":3073:3074   */\n      dup3\n        /* \"#utility.yul\":3069:3078   */\n      sub\n        /* \"#utility.yul\":3061:3078   */\n      swap1\n      pop\n        /* \"#utility.yul\":3270:3271   */\n      dup2\n        /* \"#utility.yul\":3264:3268   */\n      dup2\n        /* \"#utility.yul\":3260:3272   */\n      slt\n        /* \"#utility.yul\":3256:3257   */\n      0x00\n        /* \"#utility.yul\":3253:3254   */\n      dup5\n        /* \"#utility.yul\":3249:3258   */\n      slt\n        /* \"#utility.yul\":3245:3273   */\n      and\n        /* \"#utility.yul\":3228:3229   */\n      dup3\n        /* \"#utility.yul\":3222:3226   */\n      dup3\n        /* \"#utility.yul\":3218:3230   */\n      sgt\n        /* \"#utility.yul\":3213:3214   */\n      0x00\n        /* \"#utility.yul\":3210:3211   */\n      dup6\n        /* \"#utility.yul\":3206:3215   */\n      slt\n        /* \"#utility.yul\":3199:3216   */\n      iszero\n        /* \"#utility.yul\":3195:3231   */\n      and\n        /* \"#utility.yul\":3179:3283   */\n      or\n        /* \"#utility.yul\":3176:3306   */\n      iszero\n      tag_78\n      jumpi\n        /* \"#utility.yul\":3286:3304   */\n      tag_79\n      tag_45\n      jump\t// in\n    tag_79:\n        /* \"#utility.yul\":3176:3306   */\n    tag_78:\n        /* \"#utility.yul\":2941:3313   */\n      swap3\n      swap2\n      pop\n      pop\n      jump\t// out\n        /* \"#utility.yul\":3319:3499   */\n    tag_46:\n        /* \"#utility.yul\":3459:3491   */\n      0x56616c75652073686f756c642062652067726561746572207468616e20300000\n        /* \"#utility.yul\":3455:3456   */\n      0x00\n        /* \"#utility.yul\":3447:3453   */\n      dup3\n        /* \"#utility.yul\":3443:3457   */\n      add\n        /* \"#utility.yul\":3436:3492   */\n      mstore\n        /* \"#utility.yul\":3319:3499   */\n      pop\n      jump\t// out\n        /* \"#utility.yul\":3505:3871   */\n    tag_47:\n        /* \"#utility.yul\":3647:3650   */\n      0x00\n        /* \"#utility.yul\":3668:3735   */\n      tag_82\n        /* \"#utility.yul\":3732:3734   */\n      0x1e\n        /* \"#utility.yul\":3727:3730   */\n      dup4\n        /* \"#utility.yul\":3668:3735   */\n      tag_42\n      jump\t// in\n    tag_82:\n        /* \"#utility.yul\":3661:3735   */\n      swap2\n      pop\n        /* \"#utility.yul\":3744:3837   */\n      tag_83\n        /* \"#utility.yul\":3833:3836   */\n      dup3\n        /* \"#utility.yul\":3744:3837   */\n      tag_46\n      jump\t// in\n    tag_83:\n        /* \"#utility.yul\":3862:3864   */\n      0x20\n        /* \"#utility.yul\":3857:3860   */\n      dup3\n        /* \"#utility.yul\":3853:3865   */\n      add\n        /* \"#utility.yul\":3846:3865   */\n      swap1\n      pop\n        /* \"#utility.yul\":3505:3871   */\n      swap2\n      swap1\n      pop\n      jump\t// out\n        /* \"#utility.yul\":3877:4296   */\n    tag_32:\n        /* \"#utility.yul\":4043:4047   */\n      0x00\n        /* \"#utility.yul\":4081:4083   */\n      0x20\n        /* \"#utility.yul\":4070:4079   */\n      dup3\n        /* \"#utility.yul\":4066:4084   */\n      add\n        /* \"#utility.yul\":4058:4084   */\n      swap1\n      pop\n        /* \"#utility.yul\":4130:4139   */\n      dup2\n        /* \"#utility.yul\":4124:4128   */\n      dup2\n        /* \"#utility.yul\":4120:4140   */\n      sub\n        /* \"#utility.yul\":4116:4117   */\n      0x00\n        /* \"#utility.yul\":4105:4114   */\n      dup4\n        /* \"#utility.yul\":4101:4118   */\n      add\n        /* \"#utility.yul\":4094:4141   */\n      mstore\n        /* \"#utility.yul\":4158:4289   */\n      tag_85\n        /* \"#utility.yul\":4284:4288   */\n      dup2\n        /* \"#utility.yul\":4158:4289   */\n      tag_47\n      jump\t// in\n    tag_85:\n        /* \"#utility.yul\":4150:4289   */\n      swap1\n      pop\n        /* \"#utility.yul\":3877:4296   */\n      swap2\n      swap1\n      pop\n      jump\t// out\n        /* \"#utility.yul\":4302:4677   */\n    tag_34:\n        /* \"#utility.yul\":4341:4344   */\n      0x00\n        /* \"#utility.yul\":4360:4379   */\n      tag_87\n        /* \"#utility.yul\":4377:4378   */\n      dup3\n        /* \"#utility.yul\":4360:4379   */\n      tag_35\n      jump\t// in\n    tag_87:\n        /* \"#utility.yul\":4355:4379   */\n      swap2\n      pop\n        /* \"#utility.yul\":4393:4412   */\n      tag_88\n        /* \"#utility.yul\":4410:4411   */\n      dup4\n        /* \"#utility.yul\":4393:4412   */\n      tag_35\n      jump\t// in\n    tag_88:\n        /* \"#utility.yul\":4388:4412   */\n      swap3\n      pop\n        /* \"#utility.yul\":4435:4436   */\n      dup3\n        /* \"#utility.yul\":4432:4433   */\n      dup3\n        /* \"#utility.yul\":4428:4437   */\n      add\n        /* \"#utility.yul\":4421:4437   */\n      swap1\n      pop\n        /* \"#utility.yul\":4633:4634   */\n      dup3\n        /* \"#utility.yul\":4628:4631   */\n      dup2\n        /* \"#utility.yul\":4624:4635   */\n      slt\n        /* \"#utility.yul\":4617:4636   */\n      iszero\n        /* \"#utility.yul\":4613:4614   */\n      0x00\n        /* \"#utility.yul\":4610:4611   */\n      dup4\n        /* \"#utility.yul\":4606:4615   */\n      slt\n        /* \"#utility.yul\":4602:4637   */\n      and\n        /* \"#utility.yul\":4585:4586   */\n      dup4\n        /* \"#utility.yul\":4580:4583   */\n      dup3\n        /* \"#utility.yul\":4576:4587   */\n      slt\n        /* \"#utility.yul\":4571:4572   */\n      0x00\n        /* \"#utility.yul\":4568:4569   */\n      dup5\n        /* \"#utility.yul\":4564:4573   */\n      slt\n        /* \"#utility.yul\":4557:4574   */\n      iszero\n        /* \"#utility.yul\":4553:4588   */\n      and\n        /* \"#utility.yul\":4537:4647   */\n      or\n        /* \"#utility.yul\":4534:4670   */\n      iszero\n      tag_89\n      jumpi\n        /* \"#utility.yul\":4650:4668   */\n      tag_90\n      tag_45\n      jump\t// in\n    tag_90:\n        /* \"#utility.yul\":4534:4670   */\n    tag_89:\n        /* \"#utility.yul\":4302:4677   */\n      swap3\n      swap2\n      pop\n      pop\n      jump\t// out\n\n    auxdata: 0xa264697066735822122051aaabfc61b5fe6d38cc36c8970b26e7e262139afda29ca1a73df8bb11474c3264736f6c634300081a0033\n}\n",
				"bytecode": {
					"linkReferences": {},
					"object": "60806040526127105f553480156013575f80fd5b50610443806100215f395ff3fe608060405234801561000f575f80fd5b506004361061003f575f3560e01c80633ff1e05b146100435780637e62eab814610061578063e51ed0a014610091575b5f80fd5b61004b6100c1565b60405161005891906101ba565b60405180910390f35b61007b60048036038101906100769190610201565b6100c9565b60405161008891906101ba565b60405180910390f35b6100ab60048036038101906100a69190610201565b61013e565b6040516100b891906101ba565b60405180910390f35b5f8054905090565b5f8082136100da576100d961022c565b5b5f5482131561011e576040517f08c379a0000000000000000000000000000000000000000000000000000000008152600401610115906102d9565b60405180910390fd5b815f8082825461012e9190610324565b925050819055505f549050919050565b5f80821215610182576040517f08c379a0000000000000000000000000000000000000000000000000000000008152600401610179906103ae565b60405180910390fd5b815f8082825461019291906103cc565b925050819055505f549050919050565b5f819050919050565b6101b4816101a2565b82525050565b5f6020820190506101cd5f8301846101ab565b92915050565b5f80fd5b6101e0816101a2565b81146101ea575f80fd5b50565b5f813590506101fb816101d7565b92915050565b5f60208284031215610216576102156101d3565b5b5f610223848285016101ed565b91505092915050565b7f4e487b71000000000000000000000000000000000000000000000000000000005f52600160045260245ffd5b5f82825260208201905092915050565b7f416d6f756e74206d757374206265206c657373207468616e20696e697469616c5f8201527f2062616c616e6365210000000000000000000000000000000000000000000000602082015250565b5f6102c3602983610259565b91506102ce82610269565b604082019050919050565b5f6020820190508181035f8301526102f0816102b7565b9050919050565b7f4e487b71000000000000000000000000000000000000000000000000000000005f52601160045260245ffd5b5f61032e826101a2565b9150610339836101a2565b925082820390508181125f8412168282135f85121516171561035e5761035d6102f7565b5b92915050565b7f56616c75652073686f756c642062652067726561746572207468616e203000005f82015250565b5f610398601e83610259565b91506103a382610364565b602082019050919050565b5f6020820190508181035f8301526103c58161038c565b9050919050565b5f6103d6826101a2565b91506103e1836101a2565b92508282019050828112155f8312168382125f841215161715610407576104066102f7565b5b9291505056fea264697066735822122051aaabfc61b5fe6d38cc36c8970b26e7e262139afda29ca1a73df8bb11474c3264736f6c634300081a0033",
					"opcodes": "PUSH1 0x80 PUSH1 0x40 MSTORE PUSH2 0x2710 PUSH0 SSTORE CALLVALUE DUP1 ISZERO PUSH1 0x13 JUMPI PUSH0 DUP1 REVERT JUMPDEST POP PUSH2 0x443 DUP1 PUSH2 0x21 PUSH0 CODECOPY PUSH0 RETURN INVALID PUSH1 0x80 PUSH1 0x40 MSTORE CALLVALUE DUP1 ISZERO PUSH2 0xF JUMPI PUSH0 DUP1 REVERT JUMPDEST POP PUSH1 0x4 CALLDATASIZE LT PUSH2 0x3F JUMPI PUSH0 CALLDATALOAD PUSH1 0xE0 SHR DUP1 PUSH4 0x3FF1E05B EQ PUSH2 0x43 JUMPI DUP1 PUSH4 0x7E62EAB8 EQ PUSH2 0x61 JUMPI DUP1 PUSH4 0xE51ED0A0 EQ PUSH2 0x91 JUMPI JUMPDEST PUSH0 DUP1 REVERT JUMPDEST PUSH2 0x4B PUSH2 0xC1 JUMP JUMPDEST PUSH1 0x40 MLOAD PUSH2 0x58 SWAP2 SWAP1 PUSH2 0x1BA JUMP JUMPDEST PUSH1 0x40 MLOAD DUP1 SWAP2 SUB SWAP1 RETURN JUMPDEST PUSH2 0x7B PUSH1 0x4 DUP1 CALLDATASIZE SUB DUP2 ADD SWAP1 PUSH2 0x76 SWAP2 SWAP1 PUSH2 0x201 JUMP JUMPDEST PUSH2 0xC9 JUMP JUMPDEST PUSH1 0x40 MLOAD PUSH2 0x88 SWAP2 SWAP1 PUSH2 0x1BA JUMP JUMPDEST PUSH1 0x40 MLOAD DUP1 SWAP2 SUB SWAP1 RETURN JUMPDEST PUSH2 0xAB PUSH1 0x4 DUP1 CALLDATASIZE SUB DUP2 ADD SWAP1 PUSH2 0xA6 SWAP2 SWAP1 PUSH2 0x201 JUMP JUMPDEST PUSH2 0x13E JUMP JUMPDEST PUSH1 0x40 MLOAD PUSH2 0xB8 SWAP2 SWAP1 PUSH2 0x1BA JUMP JUMPDEST PUSH1 0x40 MLOAD DUP1 SWAP2 SUB SWAP1 RETURN JUMPDEST PUSH0 DUP1 SLOAD SWAP1 POP SWAP1 JUMP JUMPDEST PUSH0 DUP1 DUP3 SGT PUSH2 0xDA JUMPI PUSH2 0xD9 PUSH2 0x22C JUMP JUMPDEST JUMPDEST PUSH0 SLOAD DUP3 SGT ISZERO PUSH2 0x11E JUMPI PUSH1 0x40 MLOAD PUSH32 0x8C379A000000000000000000000000000000000000000000000000000000000 DUP2 MSTORE PUSH1 0x4 ADD PUSH2 0x115 SWAP1 PUSH2 0x2D9 JUMP JUMPDEST PUSH1 0x40 MLOAD DUP1 SWAP2 SUB SWAP1 REVERT JUMPDEST DUP2 PUSH0 DUP1 DUP3 DUP3 SLOAD PUSH2 0x12E SWAP2 SWAP1 PUSH2 0x324 JUMP JUMPDEST SWAP3 POP POP DUP2 SWAP1 SSTORE POP PUSH0 SLOAD SWAP1 POP SWAP2 SWAP1 POP JUMP JUMPDEST PUSH0 DUP1 DUP3 SLT ISZERO PUSH2 0x182 JUMPI PUSH1 0x40 MLOAD PUSH32 0x8C379A000000000000000000000000000000000000000000000000000000000 DUP2 MSTORE PUSH1 0x4 ADD PUSH2 0x179 SWAP1 PUSH2 0x3AE JUMP JUMPDEST PUSH1 0x40 MLOAD DUP1 SWAP2 SUB SWAP1 REVERT JUMPDEST DUP2 PUSH0 DUP1 DUP3 DUP3 SLOAD PUSH2 0x192 SWAP2 SWAP1 PUSH2 0x3CC JUMP JUMPDEST SWAP3 POP POP DUP2 SWAP1 SSTORE POP PUSH0 SLOAD SWAP1 POP SWAP2 SWAP1 POP JUMP JUMPDEST PUSH0 DUP2 SWAP1 POP SWAP2 SWAP1 POP JUMP JUMPDEST PUSH2 0x1B4 DUP2 PUSH2 0x1A2 JUMP JUMPDEST DUP3 MSTORE POP POP JUMP JUMPDEST PUSH0 PUSH1 0x20 DUP3 ADD SWAP1 POP PUSH2 0x1CD PUSH0 DUP4 ADD DUP5 PUSH2 0x1AB JUMP JUMPDEST SWAP3 SWAP2 POP POP JUMP JUMPDEST PUSH0 DUP1 REVERT JUMPDEST PUSH2 0x1E0 DUP2 PUSH2 0x1A2 JUMP JUMPDEST DUP2 EQ PUSH2 0x1EA JUMPI PUSH0 DUP1 REVERT JUMPDEST POP JUMP JUMPDEST PUSH0 DUP2 CALLDATALOAD SWAP1 POP PUSH2 0x1FB DUP2 PUSH2 0x1D7 JUMP JUMPDEST SWAP3 SWAP2 POP POP JUMP JUMPDEST PUSH0 PUSH1 0x20 DUP3 DUP5 SUB SLT ISZERO PUSH2 0x216 JUMPI PUSH2 0x215 PUSH2 0x1D3 JUMP JUMPDEST JUMPDEST PUSH0 PUSH2 0x223 DUP5 DUP3 DUP6 ADD PUSH2 0x1ED JUMP JUMPDEST SWAP2 POP POP SWAP3 SWAP2 POP POP JUMP JUMPDEST PUSH32 0x4E487B7100000000000000000000000000000000000000000000000000000000 PUSH0 MSTORE PUSH1 0x1 PUSH1 0x4 MSTORE PUSH1 0x24 PUSH0 REVERT JUMPDEST PUSH0 DUP3 DUP3 MSTORE PUSH1 0x20 DUP3 ADD SWAP1 POP SWAP3 SWAP2 POP POP JUMP JUMPDEST PUSH32 0x416D6F756E74206D757374206265206C657373207468616E20696E697469616C PUSH0 DUP3 ADD MSTORE PUSH32 0x2062616C616E6365210000000000000000000000000000000000000000000000 PUSH1 0x20 DUP3 ADD MSTORE POP JUMP JUMPDEST PUSH0 PUSH2 0x2C3 PUSH1 0x29 DUP4 PUSH2 0x259 JUMP JUMPDEST SWAP2 POP PUSH2 0x2CE DUP3 PUSH2 0x269 JUMP JUMPDEST PUSH1 0x40 DUP3 ADD SWAP1 POP SWAP2 SWAP1 POP JUMP JUMPDEST PUSH0 PUSH1 0x20 DUP3 ADD SWAP1 POP DUP2 DUP2 SUB PUSH0 DUP4 ADD MSTORE PUSH2 0x2F0 DUP2 PUSH2 0x2B7 JUMP JUMPDEST SWAP1 POP SWAP2 SWAP1 POP JUMP JUMPDEST PUSH32 0x4E487B7100000000000000000000000000000000000000000000000000000000 PUSH0 MSTORE PUSH1 0x11 PUSH1 0x4 MSTORE PUSH1 0x24 PUSH0 REVERT JUMPDEST PUSH0 PUSH2 0x32E DUP3 PUSH2 0x1A2 JUMP JUMPDEST SWAP2 POP PUSH2 0x339 DUP4 PUSH2 0x1A2 JUMP JUMPDEST SWAP3 POP DUP3 DUP3 SUB SWAP1 POP DUP2 DUP2 SLT PUSH0 DUP5 SLT AND DUP3 DUP3 SGT PUSH0 DUP6 SLT ISZERO AND OR ISZERO PUSH2 0x35E JUMPI PUSH2 0x35D PUSH2 0x2F7 JUMP JUMPDEST JUMPDEST SWAP3 SWAP2 POP POP JUMP JUMPDEST PUSH32 0x56616C75652073686F756C642062652067726561746572207468616E20300000 PUSH0 DUP3 ADD MSTORE POP JUMP JUMPDEST PUSH0 PUSH2 0x398 PUSH1 0x1E DUP4 PUSH2 0x259 JUMP JUMPDEST SWAP2 POP PUSH2 0x3A3 DUP3 PUSH2 0x364 JUMP JUMPDEST PUSH1 0x20 DUP3 ADD SWAP1 POP SWAP2 SWAP1 POP JUMP JUMPDEST PUSH0 PUSH1 0x20 DUP3 ADD SWAP1 POP DUP2 DUP2 SUB PUSH0 DUP4 ADD MSTORE PUSH2 0x3C5 DUP2 PUSH2 0x38C JUMP JUMPDEST SWAP1 POP SWAP2 SWAP1 POP JUMP JUMPDEST PUSH0 PUSH2 0x3D6 DUP3 PUSH2 0x1A2 JUMP JUMPDEST SWAP2 POP PUSH2 0x3E1 DUP4 PUSH2 0x1A2 JUMP JUMPDEST SWAP3 POP DUP3 DUP3 ADD SWAP1 POP DUP3 DUP2 SLT ISZERO PUSH0 DUP4 SLT AND DUP4 DUP3 SLT PUSH0 DUP5 SLT ISZERO AND OR ISZERO PUSH2 0x407 JUMPI PUSH2 0x406 PUSH2 0x2F7 JUMP JUMPDEST JUMPDEST SWAP3 SWAP2 POP POP JUMP INVALID LOG2 PUSH5 0x6970667358 0x22 SLT KECCAK256 MLOAD 0xAA 0xAB 0xFC PUSH2 0xB5FE PUSH14 0x38CC36C8970B26E7E262139AFDA2 SWAP13 LOG1 0xA7 RETURNDATASIZE 0xF8 0xBB GT SELFBALANCE 0x4C ORIGIN PUSH5 0x736F6C6343 STOP ADDMOD BYTE STOP CALLER "
				},
				"gasEstimates": {
					"creation": {
						"codeDepositCost": "218200",
						"executionCost": "22366",
						"totalCost": "240566"
					},
					"external": {
						"depositBalance(int256)": "infinite",
						"viewBalance()": "2410",
						"withdraw(int256)": "infinite"
					}
				},
				"methodIdentifiers": {
					"depositBalance(int256)": "e51ed0a0",
					"viewBalance()": "3ff1e05b",
					"withdraw(int256)": "7e62eab8"
				}
			},
			"storageLayout": {
				"storage": [
					{
						"astId": 4,
						"contract": "ErrorHandling.sol:ErrorHandling",
						"label": "initBalance",
						"offset": 0,
						"slot": "0",
						"type": "t_int256"
					}
				],
				"types": {
					"t_int256": {
						"encoding": "inplace",
						"label": "int256",
						"numberOfBytes": "32"
					}
				}
			},
			"userdoc": {
				"kind": "user",
				"methods": {},
				"version": 1
			}
		}
	}
}